:100000000C94972A0C94C82A0C94C82A0C94C82AD9
:100010000C94C82A0C94C82A0C94C82A0C94C82A98
:100020000C94C82A0C94C82A0C94C82A0C94C82A88
:100030000C94C82A0C94C82A0C94C82A0C94C82A78
:100040000C94C82A0C94C1EA0C94C82A0C94C82AAF
:100050000C94C82A0C94C82A0C940FFC0C94CEFD66
:100060000C94C82A0C945E310C94C82A0C94C82AAB
:100070000C94C82A0C94C82A0C94C82A0C94C82A38
:100080000C94C82A0C94C82A0C94C82A0C94C82A28
:100090000C94C82A0C94C82A0C94C82A0C9443794E
:1000A0000C94C82A0C94C82A0C94C82A0C94C82A08
:1000B0000C94C82A0C94C82A0C94C82A0C94C82AF8
:1000C0000C94C82A0C94C82A0C94C82A0C94C82AE8
:1000D0000C94C82A0C94C82A0C94C82A0C94C82AD8
:1000E0000C94C82A21722172247227722D723072E8
:1000F000337236723B722A7209D30CD310D314D3E5
:1001000018D31CD3C4D320D324D329D3C4D32ED300
:1001100034D338D33DD341D345D3C4D349D34DD3BE
:1001200053D3C4D359D35FD361D363D365D367D3D8
:1001300069D36BD36DD36FD371D373D375D377D3A7
:1001400079D37BD37DD3C4D3C4D3C4D3C4D3C4D3D2
:10015000C4D3C4D3C4D3C4D3C4D3C4D3C4D3C4D3E7
:10016000C4D3C4D3C4D3C4D3C4D3C4D3C4D3C4D3D7
:10017000C4D3C4D3C4D3C4D3C4D3C4D3C4D3C4D3C7
:10018000C4D3C4D3C4D3C4D3C4D3C4D3C4D3C4D3B7
:10019000C4D3C4D3C4D3C4D3C4D3C4D3C4D3C4D3A7
:1001A000C4D3C4D3C4D3C4D3C4D3C4D3C4D3C4D397
:1001B000C4D3C4D3C4D3C4D3C4D3C4D3C4D3C4D387
:1001C00080D395D3FCFE01FF06FF10FF1AFF93FFBB
:1001D00024FF2CFF34FF3EFF48FF52FF61FF6BFFFF
:1001E00093FF75FF7FFF89FFB4FFB7FFA6FFAAFF4C
:1001F000B0FFEEFFBBFFBFFFC5FFC9FFCDFFD3FFC1
:10020000D7FFDBFFEEFFE1FFE5FFE9FF084AD73B41
:100210003BCE016E84BCBFFDC12F3D6C74319ABDD5
:1002200056833DDA3D00C77F11BED9E4BB4C3E91F9
:100230006BAAAABE000000803F05A84CCDB2D44EE8
:10024000B93836A9020C50B9918688083CA6AAAAEA
:100250002ABE000000803F000D945D00486172647A
:10026000636F6465642044656661756C74205365D2
:100270007474696E6773204C6F61646564005630F6
:1002800031300053746F7265642073657474696EE5
:100290006773207265747269657665640020440036
:1002A0002049002020204D33303120500050494457
:1002B0002073657474696E67733A00205A00205980
:1002C0000020204D323036205800486F6D65206F79
:1002D000666673657420286D6D293A0020450020FC
:1002E0005A0020580020420020540020204D323077
:1002F00035205300416476616E63656420766172D7
:100300006961626C65733A20533D4D696E20666584
:1003100065647261746520286D6D2F73292C2054DB
:100320003D4D696E2074726176656C20666565640A
:100330007261746520286D6D2F73292C20423D6DEC
:10034000696E696D756D207365676D656E74207477
:10035000696D6520286D73292C20583D6D61786981
:100360006D756D205859206A65726B20286D6D2F50
:1003700073292C20205A3D6D6178696D756D205A66
:10038000206A65726B20286D6D2F73292C20204503
:100390003D6D6178696D756D2045206A65726B20D1
:1003A000286D6D2F73290020540020204D323034E9
:1003B000205300416363656C65726174696F6E3AC6
:1003C00020533D616363656C65726174696F6E2C67
:1003D00020543D7265747261637420616363656C5F
:1003E00065726174696F6E00204500205A002059C3
:1003F0000020204D3230312058004D6178696D75F4
:100400006D20416363656C65726174696F6E20284D
:100410006D6D2F7332293A00204500205A00205973
:100420000020204D3230332058004D6178696D75C1
:100430006D2066656564726174657320286D6D2F2B
:1004400073293A00204500205A0020590020204DF1
:1004500039322058005374657073207065722075AE
:100460006E69743A0053657474696E6773205374CF
:100470006F726564006563686F3A004D32313820F1
:10048000496E76616C696420657874727564657212
:1004900020004D31303920496E76616C69642065E9
:1004A0007874727564657220004D31303520496E64
:1004B00076616C6964206578747275646572200079
:1004C0004D31303420496E76616C696420657874F2
:1004D000727564657220005072696E746572207363
:1004E000746F707065642064756520746F20657228
:1004F000726F72732E204669782074686520657269
:10050000726F7220616E6420757365204D393939C0
:1005100020746F20726573746172742E2028546584
:100520006D70657261747572652069732072657390
:1005300065742E2053657420697420616674657239
:100540002072657374617274696E672900507269F4
:100550006E7465722068616C7465642E206B696CC2
:100560006C28292063616C6C656421004143205034
:100570006F776572204C6F7374212053746F7020F5
:100580007072696E74696E67206E6F7721006F6B91
:1005900000526573656E643A2000456E6473746F33
:1005A00070207374696C6C2070726573736564205D
:1005B0006166746572206261636B696E67206F6645
:1005C000662E20456E6473746F7020737475636B50
:1005D0003F00456E6473746F70206E6F742070728C
:1005E000657373656420616674657220686F6D69F8
:1005F0006E6720646F776E2E20456E6473746F7023
:100600002062726F6B656E3F00456E6473746F702D
:10061000206E6F74207072657373656420616674F8
:10062000657220686F6D696E6720646F776E2E202B
:10063000456E6473746F702062726F6B656E3F00FD
:100640002200556E6B6E6F776E20636F6D6D616EFD
:10065000643A202200456C656374726F6E6963733F
:100660005F746573740041637469766520457874BE
:1006700072756465723A2000496E76616C69642017
:10068000657874727564657200540020423A3000D7
:1006900020423A31006F6B20523A0020633A00202A
:1006A000643A0020693A0020703A006F6B00220023
:1006B000556E6B6E6F776E20636F6D6D616E643A11
:1006C0002022006F70656E005452494747455245DD
:1006D00044007A5F6D61783A20006F70656E005457
:1006E000524947474552454400795F6D61783A2049
:1006F000006F70656E0054524947474552454400AB
:10070000785F6D696E3A20005265706F7274696E21
:100710006720656E6473746F702073746174757391
:10072000005A3A00593A0020436F756E7420583AC7
:100730002000453A005A3A00593A00583A004649D2
:10074000524D574152455F4E414D453A4D61726C95
:10075000696E20556C74696D616B6572323B205314
:100760007072696E7465722F6772626C206D61734E
:1007700068757020666F722067656E362046495234
:100780004D574152455F55524C3A687474703A2F38
:100790002F6769746875622E636F6D2F556C74696D
:1007A0006D616B65722050524F544F434F4C5F56F2
:1007B000455253494F4E3A312E30204D414348491E
:1007C0004E455F545950453A556C74696D616B657F
:1007D000722045585452554445525F434F554E542C
:1007E0003A310A0020423A0020453A00543A003F8C
:1007F0000020573A0020453A00543A002042403A3F
:100800000020403A00202F0020423A00202F006FA5
:100810006B20543A002569206D696E2C20256920D3
:10082000736563004D333320766F6C756D655F744F
:100830006F5F66696C616D656E745F6C656E677421
:10084000683A2000456E642066696C65206C6973A7
:100850007400426567696E2066696C65206C697317
:100860007400256920686F757273202569206D6991
:100870006E7574657300446F6E65207072696E7476
:10088000696E672066696C65005072696E74657286
:100890002073746F707065642064756520746F20B8
:1008A0006572726F72732E204669782074686520B5
:1008B0006572726F7220616E6420757365204D39A8
:1008C000393920746F20726573746172742E202818
:1008D00054656D70657261747572652069732072FC
:1008E000657365742E205365742069742061667485
:1008F00065722072657374617274696E6729006F26
:100900006B004E6F204C696E65204E756D6265728E
:10091000207769746820636865636B73756D2C203C
:100920004C617374204C696E653A20004E6F204311
:100930006865636B73756D2077697468206C696E88
:1009400065206E756D6265722C204C617374204C4D
:10095000696E653A2000636865636B73756D206D21
:1009600069736D617463682C204C617374204C69E9
:100970006E653A20004C696E65204E756D62657239
:10098000206973206E6F74204C617374204C696E03
:1009900065204E756D6265722B312C204C6173742D
:1009A000204C696E653A20004D31313000446F6E45
:1009B0006520736176696E672066696C652E006FCD
:1009C0006B004D3239002020506C616E6E657242B2
:1009D000756666657242797465733A2000204672C6
:1009E0006565204D656D6F72793A2000446563201E
:1009F0002039203230313800436F6D70696C656486
:100A00003A2000566572733A5F332E332E30657884
:100A100000207C20417574686F723A200044656341
:100A200020203920323031382031363A32303A30D5
:100A30003200204C61737420557064617465643AAF
:100A40002000312E302E30004D61726C696E200016
:100A500020536F6674776172652052657365740008
:100A6000205761746368646F672052657365740012
:100A70002042726F776E206F7574205265736574B3
:100A8000002045787465726E616C205265736574E0
:100A900000506F7765725570007374617274002234
:100AA00000656E717565696E672022002200656EB3
:100AB000717565696E67202200FF01010000E0404A
:100AC0000000E0400000E040000066430000664394
:100AD0000000614300000000000066430000614325
:100AE0000000664300006643000061430000000010
:100AF00000000000000000006563686F3A00457266
:100B0000726F723A0000002110422063308440A5C9
:100B100050C660E770088129914AA16BB18CC1ADC4
:100B2000D1CEE1EFF13112100273325222B552945C
:100B300042F772D662399318837BB35AA3BDD39C14
:100B4000C3FFF3DEE36224433420040114E664C7E8
:100B500074A44485546AA54BB528850995EEE5CF64
:100B6000F5ACC58DD55336722611163006D776F6FC
:100B7000669556B4465BB77AA719973887DFF7FEB4
:100B8000E79DD7BCC7C448E5588668A77840086188
:100B90001802282338CCC9EDD98EE9AFF948896904
:100BA000990AA92BB9F55AD44AB77A966A711A509C
:100BB0000A333A122AFDDBDCCBBFFB9EEB799B5854
:100BC0008B3BBB1AABA66C877CE44CC55C222C0328
:100BD0003C600C411CAEED8FFDECCDCDDD2AAD0BA4
:100BE000BD688D499D977EB66ED55EF44E133E323C
:100BF0002E511E700E9FFFBEEFDDDFFCCF1BBF3AF4
:100C0000AF599F788F8891A981CAB1EBA10CD12DE2
:100C1000C14EF16FE18010A100C230E320045025E5
:100C20004046706760B9839893FBA3DAB33DC31C59
:100C3000D37FE35EF3B1029012F322D23235421435
:100C40005277625672EAB5CBA5A89589856EF54FA5
:100C5000E52CD50DC5E234C324A014810466744785
:100C60006424540544DBA7FAB79987B8975FE77EF9
:100C7000F71DC73CD7D326F2369106B016576676D5
:100C800076154634564CD96DC90EF92FE9C899E945
:100C9000898AB9ABA94458654806782768C018E125
:100CA000088238A3287DCB5CDB3FEB1EFBF98BD899
:100CB0009BBBAB9ABB754A545A376A167AF10AD075
:100CC0001AB32A923A2EFD0FED6CDD4DCDAABD8BE5
:100CD000ADE89DC98D267C076C645C454CA23C83C5
:100CE0002CE01CC10C1FEF3EFF5DCF7CDF9BAFBA39
:100CF000BFD98FF89F176E367E554E745E932EB215
:100D00003ED10EF01E7C3C3E5E2B3D3F2F5B5D3B9B
:100D10002C2A225C000102000304000506000102E7
:100D200052BDBD0055534200756C74696D616B65B1
:100D3000722E636F6D2F737570706F727400CCB10B
:100D40003233C9DD00CCB11029AFB000CFB132339E
:100D5000C9DD00CFB11029AFB0003347DBDCB6B737
:100D600000262725AFB0001C1D3D22ADAE47002454
:100D7000253D22ADAE4700010233A7A800D5356D51
:100D800001BE002C67010264737400150016007820
:100D9000176060E0E0E0E0E0E0E0E0E0E0C0C0C07C
:100DA0000000000000000000000000000000000043
:100DB0000000000000000000000000000000000033
:100DC0000000000000000000000000000000000023
:100DD00000000000000000000000000060E0E0E013
:100DE0000000000000000000000000000000000003
:100DF00000000000000000000000000000000000F3
:100E00000000000084C6E67E1C0000FFFFFF00001B
:100E100000000000010307FFFFFE0000000C0C3C77
:100E2000FCFCE00080F0FCFCFCF8C000E0F8FC3CBE
:100E3000000000048CFCFCFCFCFCF080C0F8FC7C96
:100E4000FCF8E000000000089C8C8C8C8C0CFCFCF6
:100E5000F8F0000000FFFFFF00E0F0F8BC1C0C0001
:100E60000000F0F8FC1CCCCCCCDCFCF8F000000C52
:100E7000FCFCFCFC1C0C0C0C00000000010101013E
:100E80000100001F1F1F18181818181C1C1E1F0F08
:100E90000701000000000000010F1F1F1F1F0700B7
:100EA000030F1F1F1F0F01000000001C3F1F070042
:100EB00000071F1F1F0F0100030F1F1F1800000F47
:100EC0001F1F393918180F1F3F1F0000001F3F1F39
:100ED000000001070F1F3E180000070F1F1C3838C5
:100EE00038381C1C080000000F1F1F0F00000000F6
:100EF00000000000000000000069C60B0C00434128
:100F00004E43454C000B0C00008888FF4848020205
:100F100002FE02020000080F00000008080F000097
:100F2000008888FF4848020202FE02020000080F03
:100F300000000008080F000000FE1212119100FED0
:100F4000020202FE000302010100000F0002020380
:100F5000004454FF54449292FE4949400002010F5C
:100F6000010200000708080E00088868FF28488072
:100F70004828FF08000100000F00010000080F00D2
:100F8000001011F20050CF41414FD0100000000777
:100F90000208080502050808001017D555577D57A7
:100FA00055D517100008080F08080E08080F080884
:100FB0000042F22EE200F453F25A56F0000007020B
:100FC000070807010701090F002C24A42425E624A3
:100FD0002424242C0008040304080F090909090823
:100FE0000002FE5252FE0204FC04FC000002030256
:100FF000020F0108040304080010220400F25450F8
:101000005F5054F200040201000F01010101090FB9
:10101000001011F200FE0A2A4A8949390008040327
:101020000609080A0908090A0000FE0202F2929263
:10103000F20202FE00000F04040404040404040F7E
:101040000011F20000FF21A9BDA921FF0000070245
:1010500008070003020B080F00C2AE9AFF9AAEC445
:10106000AB92AEC20008080E08080F0A0A0A0A0866
:10107000007800FF08C43FC404F444240000000FBB
:1010800004030804020106080004027DD5555555E5
:1010900055557D0100000A090B050505050B0908DA
:1010A00000222EABFEAAC0BE8A8979080000000F7C
:1010B0000A0A0A0A0A0F0000002010FC0382BAAADA
:1010C000ABAABA820000000F0001020A0E02020160
:1010D000001232521732D2124F2A0A0200090905B1
:1010E00003010F010305090900007C555654FC5407
:1010F00056557C000001010101010F0101010101B0
:101100000040405F5555D555555F404000080403E9
:1011100004080F0909090908001191898985BF810F
:101120008585891100000F040404040404040F00E1
:101130000098D4B3084844AB922A46400004040205
:101140000200020204050800000000F8000000FF91
:10115000101010000008080F0808080F08080808F9
:101160000002FAAAAAAAFEAAAAAAFA020008090A72
:1011700004040B0808080808008888FF4808F413CE
:10118000FA16F0000000080F000905030103050925
:101190000024A8FFA8248092A480FF400001000F33
:1011A0000001000000000F0000808AB28282FE82EF
:1011B00082A29A800000000000000F0000000000E2
:1011C0000010D854525150505054D83000000F04E1
:1011D0000404040404040F00008282BAAAAAABAA81
:1011E000AABA8282000F00000E0A0A0A0E00080F37
:1011F0000098D4B38802FE8202322EE0000404027A
:101200000A060108050205080000000000000000B1
:1012100000000000000000000000000000000000CE
:10122000008282BAAAAAABAAAABA828200090806D8
:10123000020202020608080D0000FE0A8ABEAAABDE
:10124000AABE8A0A0008070008090A04040A090855
:10125000002424242FE424242F24E404000000008C
:10126000000F00000002030000FE02FE00D27A52CE
:1012700057527AD200030103000B08040304040B45
:10128000004048504244C07F4040404000080804AD
:101290000402010001020408000808FF0808F80021
:1012A000FC0404FC00080601080807000F04040FF2
:1012B000002424FF1400D43F447C80E00008050192
:1012C000040900040800040900FC0000FF000222D9
:1012D000222222FE00010806010004040404040F77
:1012E0000010FC03086888090A08E80800000F00DD
:1012F00008080B080C0B08080002020202FE02128A
:101300002242820200000000000F000000000100E5
:1013100000FE0232CE005457EA4A5610000F020275
:10132000010003020F0202020000000000FF101083
:101330001010100000080808080F0808080808081E
:1013400000202222FE21212020FF2020000008066C
:1013500001000000000F00000000FE1222C2221A4D
:1013600002FE000000080702010001020003040F52
:101370000000FE2AAA2AEA0B2AAA2AEE000807047D
:1013800002090F000402090F0011F2007A4ACAFF95
:10139000CA4A7A02000807080A09080F08090A0859
:1013A0000088FF4800FC4444FF4444FC00080F0050
:1013B000000F04040704040F00FC242424FF242449
:1013C00024FC000000030101010709090909080EB6
:1013D000008868FF2840FE0202FE00000000000FA7
:1013E000080403000007080E001011F200109252CA
:1013F0003212921000080403040909090909090BB3
:101400000010D23292100008FF0808F80003020210
:1014100002030806010808070000FE909F10FE1254
:10142000F2129171000807000F0403080502050875
:10143000000404846414FF146484040400020102A0
:1014400002020F0202020102004824F209101212E5
:1014500012F212100000000F00000008080F000038
:10146000000488FF001010D03FD012140001000FBC
:10147000000806010001060800444424140CA74C8F
:1014800014244444000403000708080B080C010658
:1014900000801E101010FF1010101E8000070404A2
:1014A000040407040404040F0000FE020202020206
:1014B0000202020200080700000000000000000015
:1014C00000224400C05FD555D55FC000000402096A
:1014D0000F080F080F080F0800744FF44024E4BCF5
:1014E000A7A4A4200002020F0100020204060900C2
:1014F0000022440024B42CA526A43464000402086D
:101500000403000F0007080E0008FFA9A9A9FBADFE
:10151000A9A9FF0800080A0A0A0A0F0A0A0A0A0803
:10152000000002FAAAAAAFAAAAAAFA020000080FAB
:101530000A0A0A0A0A0A0F08004824F20940A2927D
:101540008A96A2400000000F000808080F0808084B
:101550000012D2FE910844AB526A46C00001000F4F
:10156000000809040502010000FE32CE0048545272
:10157000F1525448000F0201040201080F00010655
:1015800000001F252525252525A52730000101035D
:1015900005010109090F01010000000181720C70B1
:1015A000800000000008040201000000010204089D
:1015B000002027A5A5673867A5AD372000010F0AD1
:1015C0000A0E000E0A0A0F010020222222E23EE249
:1015D0002222222000080402010000070808080E49
:1015E0000011F20022EAAABFAAAAEA2200000F0410
:1015F000000F0202020A0F000088FF4800C82A0AF2
:10160000FE0949C800080F00000F05040704050F74
:101610000010210228E7212121A7680800040209FF
:101620000804050205040808004424F45C575454D7
:101630005454F4040000000F0101010101090F00DE
:10164000000E088878CF484849CA080800040209F3
:101650000804050205040808002222FE2200FE02FA
:10166000FA02FE0000040403020804030007080C49
:101670000004041C64850684641C04040008080437
:1016800004020102040408080010FC03908E8888FC
:10169000FF88888800000F00000000000F00000095
:1016A0000011F200488A2A4FEA0A0A1800000702CD
:1016B00009090503010305090000F8888888FF88E7
:1016C0008888F8000000010000000F000000010001
:1016D000002010FC03F45454FF5454740000000F15
:1016E00000080502050408080000FE929292FE928E
:1016F0009292FE00000807000000070008080F0093
:101700000000F800FF202000FF20100C00080F0848
:10171000070404000708080E00FC464544FC1008B6
:1017200027C404FC000F0404040F0000000808078D
:10173000001011F24044FF4444FF444000080403F9
:10174000040A0908080B080800040800104844535C
:101750006448D01000040201000002040A010000E5
:10176000002024A47F242420FE0202FE00020302A3
:10177000020306000F0002030098D4B38804A4A457
:10178000BFA4A4040004040202000F0404040F0018
:1017900000027A4A4ACAFFCA4A4A7A02000404028C
:1017A00001000F0001020404008868FF4802FAAF3C
:1017B000AAAFFA020000000F000A0A0603060A0A8E
:1017C0000090523E12127E12003E80FF00080A0A6C
:1017D0000A0A0F0A0A0A0A0800202AF22E6000F2FA
:1017E0001AD612F20000080F0000000904030409D1
:1017F000001011F200202020FF2020200000000710
:10180000020100000F00000000A8FA0AFE09F9A872
:1018100000FC00FF000402010F0102040001080F98
:10182000001090889492F19294889010000804021D
:1018300000080F000002040800FE2222FE000848F3
:101840008808FF08000702020700000009080F00CF
:101850000000F902F849494949F901FF00000F0069
:1018600003020202020B080F00202424A464FF6478
:10187000A42424200002020100000F000001020243
:1018800000504847FC444440FC0404FC00080403A6
:1018900000010600070202070004F45556545C5488
:1018A0005655F40400000F050505050505050F0054
:1018B00000020480201887748404140C00020108BC
:1018C0000402010001020408000000FCA4A4A5A673
:1018D000A4A4A4BC000806010F0404040404040F1B
:1018E000008888FF48004CC47546C44C0000080FAF
:1018F00000080805020205080008F8494AD008D780
:1019000014F414340008070808070807080F090929
:101910000098F7949442C27E4242FE0000000F04F9
:1019200008080F0808080F080098D4B38800FE24A0
:10193000A8FFA8240004040202000F09080F0809E8
:101940000098D4B388004AAA4FEA0A180004040297
:10195000020909050301050900FE1212FE20D24EFC
:10196000425252CE00090501050801050901050989
:10197000008888FF48085F55D5555F400000080F74
:10198000000807080F090908001010921212F2123D
:10199000129210100004020100080F00000001065E
:1019A000008888FF4800CF54545252D90000080FD5
:1019B00000000F050505050F0000F29292929E00AF
:1019C0000000FF00000000080808070000000F00EA
:1019D00000868292929293929292828600080804E4
:1019E000030000000708080C0000FC2424E404FFA6
:1019F0000485660400080700020B04020102040FBC
:101A0000008868FF4800FE92929292FE0000000F4C
:101A100000000F040404040F004048494A48F848F5
:101A20004A4948400008080402010001020408086D
:101A30000020203EA020BF242424A42000000A0966
:101A40000804070202010000003D21BFE051DF55FC
:101A5000FFA912AE00010908070904020F000304E0
:101A60000002F21212FA5652F21212F200000F04A1
:101A7000040705050704040F00404242FE424242AB
:101A8000FE42424000000806010000000F00000076
:101A90000088780FF800D8545350D8300008050259
:101AA0000D000F0404040F0000929A96F2929AB26D
:101AB00000FC00FF00080808070404040001080FE8
:101AC00000009E12F29E00FE121212F200080F0891
:101AD0000704000F090909090082BAA2B6AAEBAAF5
:101AE000B6A2BA82000F0004060504060C00080F17
:101AF000000000FE02020202FE00000000080403D3
:101B0000000000000708080E006222BAAAAAAB6A09
:101B10006A3A22620000080A0A0A070D0D09080C39
:101B2000001012149850FF50981412100002020175
:101B300000000F0000010202004030CF04C43C004E
:101B4000FF08106000080402010204080B080808DE
:101B500000040484744F44C444444404000402094F
:101B60000808080F080808080010FC03FEC202FE5F
:101B700000FC00FF00000F08040304080001080F28
:101B8000007848FF4878005FF55F359F0004040344
:101B900002070805090F05090020FE2222A22A32A9
:101BA0002222FE20000003020202030A0A0A0702A0
:101BB000008888FF48A4ACB5E6B4ACA40000080FC8
:101BC00000080A0B04040B0800F453FA56F000F85E
:101BD00088FF88F800070107090F0008080F040EA6
:101BE00000040484E45C47444444C404000201004B
:101BF0000F04040404040F000008FAAAAAAAFEA90C
:101C0000A9A9F90800080A0A0A0A0F0A0A0A0A0812
:101C10000040404040404040404040400000000004
:101C2000000000000000000000F292929E0020FFE1
:101C300028E42220000008080700000F0400030425
:101C40000098D4B38800FE2222FF21210004040260
:101C500002000F040203040E0024A4FF1480543F6A
:101C6000443C40F000080A0A0A0A0F0A0A0A0A0855
:101C70000004F65554F600CF1412911800000F011D
:101C8000090F00070A09080E00342CF7A440A2929D
:101C90008A96A2400001010F000808080F080808F2
:101CA000008868FF48201887600718200000000F90
:101CB0000000060504050E00008888FF4810FC2778
:101CC00024FD26240000080F00000F09090F090950
:101CD000008444E41C078484F48484040000000F1E
:101CE000000808080F0808080008F4535252F25A76
:101CF0005650F000000807010101070101090F001B
:101D000000428A12A792BA5257B282820008040295
:101D1000000E0A0A0A0A0E000000F2424242424243
:101D200042427E0000000708080808080808080E5C
:101D30000098D4B38840A2928A96A240000404027C
:101D4000020808080F08080800003F241414C01FE8
:101D5000242221380001010101010F0101010101CB
:101D60000004082010FC2724FD262404000402019E
:101D7000000F09090F090908002024D2574ACA4A4E
:101D800056D220200000000F05050705050F0000B2
:101D90000088780F88784242F24A464000080502DF
:101DA000050800080F000000000002E20202FE42E7
:101DB000424242000008080F08080F0808080808F7
:101DC0000012D2FE9102F4505F5054F20001000F55
:101DD00000000F010101090F0044535256527C5379
:101DE000D256524200010103050109090F01010108
:101DF000000000E01FE000C03FC000000008060136
:101E00000009060100010608001212EABFA0A0A7FF
:101E1000AAEA090C0000000F020202020A0F0000E9
:101E2000000000FE1292929291919190000806019A
:101E3000000F04040404040F0011F24048494AF85A
:101E40004A494840000807080C0A0908090A0C0812
:101E500000985432110800985433100800090909F9
:101E6000090908090909090900A19288BF84E4A4A5
:101E7000BFA4A484000404020E09040102040A0899
:101E80000028EABAEFAAAA08FF08E90A0004040435
:101E90000F0202080403040E0000129490909F9019
:101EA0009094F200000004040404040404040F00ED
:101EB00000C8487F48C810EF0808F808000F04045D
:101EC000040F08050205080800FE0232CE08FAAE2B
:101ED000ABAEFA08000F0202010202020F02020278
:101EE0000000C0300000FF00001060800001000012
:101EF00008080F00000000010020102C23E0202023
:101F000023EC102000000804030008080807000064
:101F1000008897F4949400F888FF88F80000000F78
:101F200004020001000F00010012D2FE91403800AF
:101F3000FF0004B80001000F0008080404020100BB
:101F4000002010FC2324E4BCA7A4A4200000000F60
:101F500000000202040609000000FE02EAAAEA02EA
:101F60009F629BC20009060006080A0D080C020DBC
:101F70000098F7948410D45F54545FD400000F0489
:101F800002000F050505050F0011F280A0AFA9E9B9
:101F9000A9AFA0800000070208040201020408089B
:101FA00000342CF7A4F84848FF4848F80001010F16
:101FB000000F04040704040F008888FF4870577559
:101FC000857557700000080F000905030F03050908
:101FD000002010FC030807FC242424040000000F48
:101FE0000000000F01010101001011F2002826E499
:101FF0003FE4242000080403040A090808090A0B26
:10200000008888FF4821A395E995A3200000080FC8
:10201000000202020F020202002010FC03405E5286
:10202000F2525E400000000F000402010F010204A2
:10203000008888FF4800FC44454644FC0000080F27
:1020400000080700000000000008482A1C08BF081C
:102050001C2A4808000909050503010305050909AB
:10206000000000C0C00000000000000000000002EE
:102070000100000000000000000000C02020C0009F
:10208000000000000000000001010000000000004E
:102090000000003E3E0000000000000000000003C1
:1020A00003000000000000000000003030000000CD
:1020B000000000000000000303000000000000001A
:1020C0000000000000006060000000000000000050
:1020D000000000000000000000000C0EE1F11E0CEA
:1020E00000000000000000000606000000000000E4
:1020F00000F806010804FE00000106F800000304D1
:10210000000003000004030000F8060104C2221CC2
:10211000000106F8000003040302020200040300A9
:1021200000182424448C0004FC0404F80003020278
:1021300002010002030202010010FC030454545582
:102140005654540400000F00000F050505050F004C
:102150000000FEAAAAABAAAAAAAAFE0000080600CE
:102160000608090A080C020C0098D4B3880064D44D
:102170004DC654E400040402020804030007080CDE
:10218000001011F200202020FF2020200000000776
:10219000020100000F0000000094F39264DC88AAA2
:1021A000FFAABE0800000F040A070A0A0F0A0A0A5B
:1021B00000007C454644444446457C000008060037
:1021C0000608090A080C01060000F9022020A2FAFC
:1021D000222202FE00000F00020104070008080F7F
:1021E0000020202020FFA4A424242420000000009C
:1021F000000F0000010102000000000000FFFEFCD3
:10220000F8F0600000000000000F0703010000006C
:1022100000202020FF2828E42422222000000000A3
:102220000F0402000102040400049C609C040004EA
:102230001CE01C0400020300030200000203020071
:1022400000000000040CB440B40C040000000000C6
:10225000040605000506040000000000040C34C05C
:10226000340C04000000000000000407040000001B
:1022700000000000000804C4241C0400000000004A
:102280000004070404040600008445F64CA002FE86
:10229000020202FE0000000F000806010008080705
:1022A0000010F05F55F51555D55FD01000040705F7
:1022B000050F0208050205080010101010D03FD0CD
:1022C00010101010000808040300000003040808A0
:1022D000000CA4948C8586848C94A40C00080808B7
:1022E00008080F0808080808008444F40C87949430
:1022F000D4B494840000000F000000080F00000018
:102300000000FC24242625242424FC0000000F09BE
:102310000909090909090F0000000C102041864035
:102320002018060000080804020100010204080841
:10233000009054B6955C54349436549000000A0AC8
:102340000A0A09050404020000482A987F284A1056
:10235000EF08F80800090B05050B00080502050841
:102360000000108894E7C4A4A4948C8000010100AC
:102370000F0404040404040F00808494A484FF84E4
:10238000A4948480000808040201000102040808E3
:10239000002C24A4643D262424E4242C00080809ED
:1023A0000505020205040800001010282422E1227D
:1023B000242810100008090909090F09090909084A
:1023C000002010FC03088889FA8888080000000FA4
:1023D000000808080F080808000C25ADAD45BF45EA
:1023E000ADAD250C000101000505050B090001013B
:1023F000008868FF481028A42324A8100000000FBC
:1024000000090E080B0C0B08002244FE02FA02FE23
:1024100000FC00FF00040209040304090001080F86
:1024200000FC9254FF549200FE12F21100070404C3
:102430000704040807000F00001212EAA6A2BFA2B8
:10244000A6EA12120008080B0A0A0A0A0A0B080870
:1024500000808889FA888888FA89888000000806C0
:10246000010000000F0000000002F212121212F22E
:102470000202FE02000003010101010108080F0031
:10248000003800FF1008020202FE020200080601E6
:10249000020C0008080F0000003292979292D79227
:1024A000929792320000070000000F00000407001E
:1024B000002010FC03088868FF6888080000000FEF
:1024C000000201000F00010200FF4949FF00FF491F
:1024D00049F9494F0007020207000F040003040EE8
:1024E0000010FC039AF692BA00FC00FF00000F00F7
:1024F000040702020001080F00FE0232CE10FC03A6
:102500004888FF08000F020201000F0000080F00BA
:10251000000404FC040408FF080808F80002020193
:1025200009050300000808070000FF05252DF52513
:1025300025F52D270008070109050301010F0101F9
:10254000000000000000000000000000000000FC8F
:10255000000000000002000000000C020C0200005D
:10256000000000000090D0BCD0BC9000030003002D
:10257000001824FE448C000302070201001824D82E
:10258000B04C80000300010201C038E438E00001D3
:102590000202010202080600000000000000000024
:1025A00000000000F8040200000001020400020420
:1025B000F800000004020100009060F86090000044
:1025C00000010000002020FC20200000000100008D
:1025D000000000000000000806000000002020208D
:1025E00020200000000000000000000000000000AB
:1025F00002000000000080601C02000403000000D4
:1026000000F8040404F8000102020201000008FCC2
:102610000000000002030200001884442418000394
:10262000020202020008042424D80001020202016E
:102630000040B088FC80000000000302003C24241D
:1026400024C400010202020100F824242CC000016D
:1026500002020201000C04E41C040000000300005C
:1026600000D8242424D80001020202010038444486
:1026700044F8000003020201000000100000000006
:102680000002000000000020000000000006000022
:102690000000205088040200000000010290909089
:1026A000909000000000000000000204885020000C
:1026B00002010000001804C42418000000020000F9
:1026C00000F804E494F80001020202020000E09C19
:1026D000F0800002030000030204FC2424D800025E
:1026E0000302020100F80404040C000102020201CA
:1026F0000004FC0404F80002030202010004FC24AC
:10270000740C0002030202030004FC24740C000297
:102710000302000000F0080444CC40000102020162
:102720000004FC2020FC040203000003020404FC5B
:10273000040400020203020200000404FC04040674
:10274000040403000004FC24D00C04020302000370
:102750000204FC04000000020302020203FC3CC06D
:102760003CFC0003000300030004FC30C4FC040232
:102770000302000300F8040404F80001020202014D
:102780000004FC24241800020302000000F88484E2
:1027900004F80001020207050004FC24649800020A
:1027A0000302000302182424448C000302020201E5
:1027B000000C04FC040C0000020302000004FC00F6
:1027C00000FC04000102020100047C80E01C040003
:1027D00000030000001CE03CE01C000003000300BC
:1027E00000049C609C0400020300030200041CE03F
:1027F0001C04000002030200000C84641C0400029C
:1028000003020203000000FE0202000000070404AD
:1028100000000E30C00000000000010200000202B3
:10282000FE00000004040700000004020400000091
:102830000000000000000000000000080808080870
:10284000080000020000000000000000000040A09E
:10285000A0C00000010202030204FC2020C000000E
:10286000030202010000C0202060000001020202F9
:102870000000C02024FC0000010202030200C0A0EE
:10288000A0C0000001020202000020F8242404007D
:1028900002030202000040A0A0602000070A0A0A0A
:1028A0000404FC2020C0000203020003020020E414
:1028B000000000000203020000000020E400000805
:1028C000080807000004FC80E02020020302000347
:1028D000020404FC000000020203020200E020E007
:1028E00020C00003000300030020E02020C00002FD
:1028F000030200030200C02020C000000102020108
:102900000020E02020C000080F0A02010000C020C3
:1029100020E0000001020A0F0820E0402020000211
:1029200003020000000060A0A020000002020203D9
:10293000000020F820000000000102020020E0005A
:1029400020E00000010202030220E020806020005D
:1029500000030100006080E08060000003000300CD
:102960000020608060200002030003020020E020BD
:102970008060200808070100000020A060200000FF
:102980000203020200000020DE0200000000070433
:1029900000000000FF00000000000F00000002DE49
:1029A00020000000040700000000020488502000FE
:1029B0000201000000002050880402000000000115
:1029C000028888FF4848020202FE02020000080F47
:1029D00000000008080F000000FE1212119100FE16
:1029E000020202FE000302010100000F00020203C6
:1029F000004454FF54449292FE4949400002010FA2
:102A0000010200000708080E00088868FF284880B7
:102A10004828FF08000100000F00010000080F0017
:102A2000000002FAAAAAAFAAAAAAFA020000080F96
:102A30000A0A0A0A0A0A0F08004824F20940A29268
:102A40008A96A2400000000F000808080F08080836
:102A50000022440024B42CA526A4346400040208F7
:102A60000403000F0007080E0008FFA9A9A9FBAD89
:102A7000A9A9FF0800080A0A0A0A0F0A0A0A0A088E
:102A80000000C0300000FF00001060800001000066
:102A900008080F000000000100FE2222FE00084886
:102AA0008808FF08000702020700000009080F005D
:102AB0000020102C23E0202023EC1020000008042C
:102AC0000300080808070000008897F4949400F8B1
:102AD00088FF88F80000000F04020001000F0001C9
:102AE0000012D2FE91403800FF0004B80001000F30
:102AF00000080804040201000020AAB2E3B2AA0000
:102B0000FE12F211000402080F000A0403000F0075
:102B1000002C24A4643D262424E4242C0008080965
:102B200005050202050408000002FAAAAAAAFEAAE4
:102B3000AAAAFA020008090A04040B0808080808EF
:102B400000322AE608AAAAFFAAAABE0800090605BA
:102B50000A0A0A0F0A0A0A0A00202AF22E6000F264
:102B60001AD612F20000080F00000009040304093D
:102B7000001011F200202020FF202020000000077C
:102B8000020100000F00000000A8FA0AFE09F9A8DF
:102B900000FC00FF000402010F0102040001080F05
:102BA000001090889492F19294889010000804028A
:102BB00000080F00000204080000F902F849494922
:102BC00049F901FF00000F0003020202020B080F87
:102BD00000202424A464FF64A42424200002020111
:102BE00000000F000001020200504847FC4444402E
:102BF000FC0404FC000804030001060007020207AD
:102C00000000FE0202F29292F20202FE00000F04A5
:102C1000040404040404040F0088FF4800FC444436
:102C2000FF4444FC00080F00000F04040704040FD5
:102C30000012D2FE910844AB526A46C00001000F58
:102C4000000809040502010000FE32CE004854527B
:102C5000F1525448000F0201040201080F0001065E
:102C600000001F252525252525A527300001010366
:102C700005010109090F01010000000181720C70BA
:102C800080000000000804020100000001020408A6
:102C900000801E101010FF1010101E80000704048A
:102CA000040407040404040F0011F20000FF21A92A
:102CB000BDA921FF0000070208070003020B080F4F
:102CC00000C2AE9AFF9AAEC4AB92AEC20008080E24
:102CD00008080F0A0A0A0A08001011F20050CF4132
:102CE000414FD0100000000702080805020508083F
:102CF000001017D555577D5755D517100008080FE8
:102D000008080E08080F08080042F22EE200F453EB
:102D1000F25A56F000000702070807010701090FE1
:102D2000002C24A42425E6242424242C00080403B5
:102D300004080F09090909080002FE5252FE0204A4
:102D4000FC04FC0000020302020F01080403040853
:102D50000010220400F254505F5054F200040201AB
:102D6000000F01010101090F001011F200FE0A2AF3
:102D70004A894939000804030609080A0908090AAA
:102D8000007800FF08C43FC404F444240000000F8E
:102D900004030804020106080004027DD5555555B8
:102DA00055557D0100000A090B050505050B0908AD
:102DB00000222EABFEAAC0BE8A8979080000000F4F
:102DC0000A0A0A0A0A0F0000002010FC0382BAAAAD
:102DD000ABAABA820000000F0001020A0E02020133
:102DE000001232521732D2124F2A0A020009090584
:102DF00003010F010305090900007C555654FC54DA
:102E000056557C000001010101010F010101010182
:102E10000040405F5555D555555F404000080403BC
:102E200004080F0909090908001191898985BF81E2
:102E30008585891100000F040404040404040F00B4
:102E40000098D4B3084844AB922A464000040402D8
:102E50000200020204050800000000F8000000FF64
:102E6000101010000008080F0808080F08080808CC
:102E70000004041C64850684641C0404000808041F
:102E800004020102040408080010FC03908E8888E4
:102E9000FF88888800000F00000000000F0000007D
:102EA00000202020FF2828E4242222200000000007
:102EB0000F040200010204040000FE0A8ABEAAAB4D
:102EC000AABE8A0A0008070008090A04040A0908B9
:102ED0000011F2007A4ACAFFCA4A7A0200080708BB
:102EE0000A09080F08090A0800808AB28282FE8255
:102EF00082A29A800000000000000F000000000085
:102F00000010D854525150505054D83000000F0483
:102F10000404040404040F00008282BAAAAAABAA23
:102F2000AABA8282000F00000E0A0A0A0E00080FD9
:102F30000098D4B38802FE8202322EE0000404021C
:102F40000A06010805020508008282BAAAAAABAAED
:102F5000AABA828200090806020202020608080DC7
:102F600000FE02FE00D27A5257527AD200030103C9
:102F7000000B08040304040B004048504244C07F87
:102F80004040404000080804040201000102040817
:102F9000000808FF0808F800FC0404FC000806010B
:102FA000080807000F04040F002424FF1400D43F76
:102FB000447C80E0000805010409000408000409BD
:102FC00000FC0000FF000222222222FE000108066F
:102FD000010004040404040F0010FC0308688809BD
:102FE0000A08E80800000F0008080B080C0B080886
:102FF0000002020202FE02122242820200000000CF
:10300000000F00000000010000FE0232CE00545705
:10301000EA4A5610000F0202010003020F020202E8
:1030200000A19288BF84E4A4BFA4A4840004040285
:103030000E09040102040A080028EABAEFAAAA0845
:10304000FF08E90A000404040F0202080403040E46
:103050000000000000FF1010101010000008080809
:10306000080F08080808080800202222FE21212055
:1030700020FF20200000080601000000000F0000D3
:103080000000FE1222C2221A02FE000000080702FF
:10309000010001020003040F0000FE2AAA2AEA0B25
:1030A0002AAA2AEE0008070402090F000402090FE9
:1030B00000744FF44024E4BCA7A4A4200002020F33
:1030C0000100020204060900002424242FE4242421
:1030D0002F24E40400000000000F000000020300A1
:1030E00000FC242424FF242424FC0000000301010C
:1030F000010709090909080E008868FF2840FE0237
:1031000002FE00000000000F080403000007080E84
:10311000008868FF4800FE92929292FE0000000F25
:1031200000000F040404040F004048494A48F848CE
:103130004A49484000080804020100010204080846
:103140000000FE909F10FE12F2129171000807001D
:103150000F04030805020508000404846414FF1426
:10316000648404040002010202020F02020201024E
:103170000010FC03045454555654540400000F002E
:10318000000F050505050F000000FEAAAAABAAAABC
:10319000AAAAFE00000806000608090A080C020C8C
:1031A000001011F200109252321292100008040323
:1031B000040909090909090B004824F2091012122F
:1031C00012F212100000000F00000008080F0000AB
:1031D0000098D4B3880064D44DC654E400040402BB
:1031E000020804030007080C0000FE0202020202AB
:1031F00002020202000807000000000000000000B8
:1032000000224400C05FD555D55FC000000402090C
:103210000F080F080F080F08008888FF48004CC4EB
:103220007546C44C0000080F000808050202050896
:103230000094F39264DC88AAFFAABE0800000F0481
:103240000A070A0A0F0A0A0A0008F8494AD008D7EA
:1032500014F414340008070808070807080F0909C0
:103260000010D23292100008FF0808F80003020292
:10327000020308060108080700404242FE4242429B
:10328000FE42424000000806010000000F0000005E
:1032900000342CF7A4F84848FF4848F80001010F13
:1032A000000F04040704040F008445F64CA002FE3E
:1032B000020202FE0000000F0008060100080807D5
:1032C0000088780FF800D8545350D8300008050211
:1032D0000D000F0404040F000010F05F55F51555A4
:1032E000D55FD01000040705050F02080502050888
:1032F0000010101010D03FD010101010000808045B
:1033000003000000030408080011F24048494AF88D
:103310004A494840000807080C0A0908090A0C082D
:103320000098543211080098543310080009090914
:10333000090908090909090900007C454644444473
:1033400046457C00000806000608090A080C01062C
:10335000000000FCA4A4A5A6A4A4A4BC0008060127
:103360000F0404040404040F0000F9022020A2FA50
:10337000222202FE00000F00020104070008080FCD
:10338000008682929292939292928286000808041A
:10339000030000000708080C0011F20022EAAABF8F
:1033A000AAAAEA2200000F04000F0202020A0F007C
:1033B000008444F40C879494D4B494840000000FE7
:1033C000000000080F000000008888FF4808F41380
:1033D000FA16F0000000080F0009050301030509B3
:1033E0000011F200488A2A4FEA0A0A180000070270
:1033F00009090503010305090000F8888888FF888A
:103400008888F8000000010000000F0000000100A3
:103410000010210228E7212121A7680800040209E1
:103420000804050205040808004424F45C575454B9
:103430005454F4040000000F0101010101090F00C0
:10344000002010FC03088868FF6888080000000F4F
:10345000000201000F00010200FF4949FF00FF497F
:1034600049F9494F0007020207000F040003040E48
:103470000010FC039AF692BA00FC00FF00000F0057
:10348000040702020001080F0098F7948410D45F2B
:1034900054545FD400000F0402000F050505050F0A
:1034A0000011F280A0AFA9E9A9AFA0800000070237
:1034B00008040201020408080004080010484453EC
:1034C0006448D01000040201000002040A01000058
:1034D000002024A47F242420FE0202FE0002030216
:1034E000020306000F000203008868FF4802FAAFDB
:1034F000AAAFFA020000000F000A0A0603060A0A31
:103500000090523E12127E12003E80FF00080A0A0E
:103510000A0A0F0A0A0A0A080098D4B38804A4A465
:10352000BFA4A4040004040202000F0404040F005A
:1035300000027A4A4ACAFFCA4A4A7A0200040402CE
:1035400001000F000102040400F806010804FE0057
:10355000000106F80000030400000300000403005B
:1035600000F8060104C2221C000106F80000030452
:1035700003020202000403000000FC242426252488
:103580002424FC0000000F090909090909090F009A
:1035900000000C1020418640201806000008080496
:1035A0000201000102040808002010FC03405E52E2
:1035B000F2525E400000000F000402010F010204FD
:1035C00000000000000000005F000000070007008E
:1035D000147F147F14242A7F2A122313086462366E
:1035E000495522500005030000001C224100004103
:1035F000221C00082A1C2A0808083E08080050302F
:103600000000080808080800606000002010080496
:10361000023E5149453E00427F40004261514946C9
:103620002141454B311814127F1027454545393C3F
:103630004A49493001710905033649494936064965
:1036400049291E00363600000056360000000814D6
:1036500022411414141414412214080002015109C7
:1036600006324979413E7E1111117E7F4949493622
:103670003E414141227F4141221C7F494949417FCE
:10368000090901013E414151327F0808087F00418C
:103690007F41002040413F017F081422417F40408C
:1036A00040407F0204027F7F0408107F3E41414179
:1036B0003E7F090909063E4151215E7F09192946CD
:1036C000464949493101017F01013F4040403F1FC8
:1036D0002040201F7F2018207F63140814630304F8
:1036E000780403615149454300007F4141020408C9
:1036F000102041417F00000402010204404040408C
:1037000040000102040020545454787F4844443857
:103710003844444420384444487F385454541808AA
:103720007E090102081454543C7F080404780044C4
:103730007D40002040443D00007F10284400417F30
:1037400040007C041804787C08040478384444441D
:10375000387C14141408081414187C7C0804040819
:103760004854545420043F4440203C4040207C1C9A
:103770002040201C3C4030403C44281028440C5041
:1037800050503C4464544C44000836410000007FD3
:103790000000004136080008082A1C08081C2A08F6
:1037A00008473120462569205A2569205825692077
:1037B00059256900473238205A3020583020593076
:1037C0000057381C1D0D0EBA0049696E6F7071727A
:1037D000B9006C6D000B0C00473238205A300001E4
:1037E00002565C5D4F50BB009FC1C952B4B5999A57
:1037F0000032312F3231007A7B010200C1C95109F8
:1038000052BDBD0032312F323100494A46C1C9BBD9
:103810000032312F32310001023305067398BB00AC
:1038200032302F323100999A010200B4B50304B846
:103830005D00030456B4B5BA009697737401023361
:103840000031392F3231006C6D000102560304B88B
:103850005DBE0054B3001516B4B5BC0031382F322C
:1038600031001500160031372F32310003040506F0
:10387000002A8B77B9050603040031362F32310058
:103880006C6D00692A6A6B00A624253BA362B9000F
:1038900031352F3231006C6D00A4A5030452BDBD3B
:1038A0000031342F3231004A460304BB00499FA047
:1038B000A1A2A3332CB90031332F3231006C6D003B
:1038C00024255E27B9499D9EBB0031322F3231003D
:1038D0004D383400473120463132303030205831B5
:1038E0003130205931300049999A9B0304BA001CA9
:1038F0001D96970D0E7398B90031312F3231006C3F
:103900006D008A102C77B2B3BB0093898494950024
:1039100031302F3231006C6D007374008A102C77B7
:10392000B2B3BB00938384949500392F3231006C7D
:103930006D008D8F909192461C1DBB000D238586D6
:10394000B9538E465600382F3231006C6D006C6DC5
:1039500000473120462569205A300047312046254E
:103960006920582569205925690047312046256975
:10397000205A35008B8C8D8E461C1DBB008A10553D
:1039800077B9535400372F3231006C6D00531C1D32
:1039900087887C2425000D23898456858600362F50
:1039A0003231006C6D00473120462569205A3000C5
:1039B0004731204625692058256920592569004747
:1039C0003120462569205A3500531C1D87887C24E8
:1039D00025000D23838456858600352F3231006CF7
:1039E0006D00473120462569205A30004731204676
:1039F0002569205825692059256900473120462529
:103A000069205A3500909087882425006A3E6A6BA9
:103A100043351C1D00342F3231006C6D006C6D007D
:103A2000473120462569205A2569205825692059A3
:103A300025690047323820583020593000692A6AF9
:103A40006B6C6DBA002A7957381C1D0D0E00332F90
:103A50003231006C6D00473120462569205A2569B6
:103A600000473238205A3000737475767778BB007F
:103A700049696E6F707172B900322F3231006C6D0E
:103A800000692A6A6B6C6DBA00666768350102339B
:103A9000BB00312F3231006C6D004300432F0069B1
:103AA000C60B0C001C1D3D22003F3F3F0044574DFC
:103AB000414B455200A8A99ED7A1A200D4D5D692C9
:103AC00000D0D1D2D300CCCDCECFA1A2009899A165
:103AD000A200C8C9CAB69FCB009ADC828300C4C5C5
:103AE000828300B7B8C6C700B7B8C2C300BCBDC0A8
:103AF000C100B7B8BEBF00BCBDBEBF004C4544BB93
:103B0000B59FA0003C20A79800566572733A5F33BA
:103B10002E332E3065780025004300432F004300EC
:103B2000432F0025003F3F3F004C4544F0F1F29207
:103B300089002080E8CFE700208081DDE60020E5D5
:103B4000AECFE70020E5AEDDE600BBB59FCB003C85
:103B5000A79800206D696E287329002500206D69E3
:103B60006E28732900E5E6E7E8E95F620025002199
:103B7000220D230021220D0E004300432F0069C6B1
:103B80000B0C0024253D22004732382058302059A4
:103B900030004300432F0069C60B0C0024253D2252
:103BA000B96A3E4335003F3F3F009899B6B500984B
:103BB00099B4B5003CA798006D6D2F736563006DD7
:103BC0006D006D6D2F736563000C313022006D6DDB
:103BD000000C31CB22000C310506003F3F3F00E3D3
:103BE000E4CD737465702F6D6D005ADE20737465BB
:103BF000702F6D6D0059DE20737465702F6D6D0030
:103C000058DE20737465702F6D6D00E3E4CDCC86B3
:103C1000005ADECC86005859DECC86005ADEE1E23E
:103C2000B6B50059DEE1E2B6B50058DEE1E2B6B560
:103C3000005859DEDFE0B6B50091A1BEB6B5003C34
:103C4000A7980020737465702F6D6D0020737465E4
:103C5000702F6D6D0020737465702F6D6D00207373
:103C60007465702F6D6D006D41006D41006D4100F8
:103C70006D6D2F736563006D6D2F736563006D6DE2
:103C80002F736563006D6D2F736563006D6D2F730A
:103C900065635E3200737465702F6D6D00A2A3338F
:103CA00000737465702F6D6D00CFB1007374657013
:103CB0002F6D6D00CEB100737465702F6D6D00CDEA
:103CC000B1006D4100A2A333323F006D4100CFB17E
:103CD000323F006D4100CCB1323F006D6D2F7365F6
:103CE0006300CFB1D1D23022006D6D2F73656300B8
:103CF000CEB1D1D23022006D6D2F73656300CDB18E
:103D0000D1D23022006D6D2F73656300CCB1D030FD
:103D1000220030306D6D2F7365635E3200263022D5
:103D20000032337576050600446563202039203261
:103D30003031382031363A32303A303900566572F7
:103D4000733A5F332E332E3065780051513A313754
:103D50003236393137323200524F36000B0C0020E8
:103D60006D004D61743A003A0001026263BC003A92
:103D7000007A336263BC00CB2228DE000B0C0015F6
:103D8000160F103B3C0506BE00150016003F3F3FD6
:103D9000004F4C4544F0F1A1A2003CA79800206DD3
:103DA000696E28732900206D696E28732900ECB6AE
:103DB000E95F6200EA26EB8F0025002E2F3E3000DF
:103DC0004731204625692058256920592569004733
:103DD0003238205830205930004731205A343000D2
:103DE000473238205A3000473238205A30004732A4
:103DF00038205830205930001E1F0506001C1D0DAC
:103E00000E001E1F0506000B0C00435045004350DA
:103E10004500435045005550455400504554470017
:103E200041425300504C410024255E27B9499D9ED4
:103E3000BB002500C8C93A0043004300250086871F
:103E40003A006D6D000304050600692A6A6B00A63E
:103E500024253BA362B900070800090A00A4A503B2
:103E60000452BDBD004A460304BB00499FA0A1A265
:103E7000A3332CB900070800090A004A460304BB13
:103E800000070800090A004344030452BDBD005E58
:103E90002752B9499D9EBB0043440304B924250021
:103EA000473238205830205930009C9D8283A1A28F
:103EB000009C9E8283A1A2008283FDA4FE003CA7F9
:103EC000980051090304050600B6D4030405060052
:103ED000D508D60304D7D8002500C8C93A00430046
:103EE0004300250086873A006D6D003F3F3F00820A
:103EF0008391A1008283868700C8C9CAB6008283E5
:103F0000848500B7B8D8B500BCBDD8B5003CA7982B
:103F100000250025006D6D00430043008D908283D5
:103F2000003CA7980003045E0500250003043F4001
:103F30000025002E2F3E30006D6D0003044142002D
:103F400043001C1D3D2200430024253D22000304A4
:103F5000D508D6004D4154455249414C2E54585431
:103F6000004F50D9000506B6D47CC15200070800A6
:103F70000A0A006469616D657465723D000A006635
:103F80006C6F773D000A0066616E5F7370656564F3
:103F90003D000A006265645F74656D7065726174EE
:103FA0007572653D000A0074656D706572617475A7
:103FB00072653D000A006E616D653D005B6D617468
:103FC000657269616C5D0A00C1C9510952BDBD00CD
:103FD000494A46C1C9BB005109C1C9525605064FDD
:103FE00050000708006469616D6574657200666C55
:103FF0006F770066616E5F7370656564006265640B
:104000005F74656D70657261747572650074656D5D
:104010007065726174757265006E616D65005B6DCF
:104020006174657269616C5D004B4C4D4E05064FC5
:104030005000C1C9510952BDBD00494A46C1C9BB62
:10404000001516B4B50304B85DBE001500030405E1
:1040500006004731204625692058256920592569E1
:104060000047323820583020593000191A03040014
:1040700003040506000B0C004D3630312058352066
:10408000593135205A2569204C2569004300432FBA
:104090000069C60B0C0024253D22BC0060616263F0
:1040A000BC00606162636465BB00430043001C1D8B
:1040B0002627004300430024252627004F50000DEB
:1040C0000E001112000F10010200191A0304000D56
:1040D0000E000F10010200191AE11B000D0E004C1A
:1040E0004544BBB59FA0009899A1A2008283868712
:1040F00000C8C9CAB600B7B8D8B500BCBDD8B500AD
:104100008081B6B500FFEA808100B0B18081003CBB
:10411000A7980025002500250043004300430043E5
:104120000025001516B6D42A676D01BE00150016CD
:10413000003F3F3F009899B6B5009899B4B5003C50
:10414000A798006D6D2F736563006D6D006D6D2F09
:10415000736563000C313022006D6D000C31CB2291
:10416000000C31050600250021220D230025000347
:10417000043F400025002E2F3E3000250001023074
:1041800022000D0E00151617180102BE00150016AC
:1041900000262752999A0102BA000D0E0017180046
:1041A000050657380102005354554F502C56006CE9
:1041B0006D000B0C003C204241434B003C2052451B
:1041C0005455524E00C1C900766F6C756D655F74B1
:1041D0006F5F66696C616D656E745F6C656E677448
:1041E000685B655D3A20004731204631323030301F
:1041F0002058352059313000473238003B464C4179
:10420000564F523A556C746947436F6465003B469C
:104210004C41564F523A556C746947436F64650080
:104220004B4C4D4E4F50BB00070800070800C1C95A
:10423000510952BDBD00494A46C1C9BB004B4C01A2
:1042400002C2C3006D006D008283B4B53A00919242
:1042500089953A003B4D4154455249414C3A003B07
:1042600054494D453A004F50DA004D38340047313B
:104270002058352059313520463132303030004712
:1042800031205A25690047323800473238205A30E9
:104290000047323820583020593000473120462519
:1042A0006920453000473932204525690052657440
:1042B00072616374696F6E2D313020696E203273C4
:1042C000742100746F74616C5F72657472616374E1
:1042D0005F6C656E6774683A20004731305F7265C5
:1042E00074726163745F6C656E6774683A2000472E
:1042F00031305F7265747261637465643A200045A1
:104300004E445F4F465F5052494E545F524554529F
:10431000414354494F4E29202F20766F6C756D65AF
:104320005F746F5F66696C616D656E745F6C656EFE
:104330006774683A20004731204625692045256981
:104340000052657472616374696F6E2D313020693B
:104350006E203173742100746F74616C5F726574C8
:10436000726163745F6C656E6774683A20004731F0
:10437000305F726574726163745F6C656E677468D8
:104380003A20004731305F7265747261637465640E
:104390003A2000766F6C756D655F746F5F66696C4F
:1043A000616D656E745F6C656E6774683A20004D70
:1043B000343031006D014F5096B6D4BB0049093BF3
:1043C0005C5DBB0001025A5B000B0C131400430040
:1043D000432000010233585952BB000B0C13140048
:1043E0000102D363AFB0BB000B0C13140074753A19
:1043F00000C1C95109AFB0BB000B0C131400646FAE
:1044000053746172745072696E74233500646F5313
:10441000746172745072696E74233400646F5374E3
:104420006172745072696E74233300646F537461E7
:1044300072745072696E74233200646F53746172C7
:10444000745072696E742331004D383420582059ED
:10445000205A20450043616E6E6F7420656E74654E
:1044600072207375626469723A2000746970735FB8
:1044700061635F706F7765725F73746F707065648E
:104480003A2000536176696E672074696D653A2041
:1044900000435245415445207265737572722E6710
:1044A0002121212121212121212121212121004DF1
:1044B0003234004D3233202573006175746F2569E5
:1044C0002E67006572726F722077726974696E6709
:1044D00020746F2066696C650043617264206572A8
:1044E000726F723A004E6F74205344207072696E7E
:1044F00074696E67002F005344207072696E74698E
:104500006E67206279746520002E0044656C6574C6
:10451000696F6E206661696C65642C2046696C6504
:104520003A200046696C652064656C657465643A80
:10453000002E006F70656E206661696C65642C20CA
:1045400046696C653A200057726974696E67207419
:104550006F2066696C653A20002E006F70656E20D2
:104560006661696C65642C2046696C653A20004F71
:1045700070656E2066696C65207769746820575293
:10458000495445206D6F64652E002E006F70656E76
:10459000206661696C65642C2046696C653A200070
:1045A0004641494C454420544F204F50454E2046EB
:1045B000494C450046696C652073656C656374659C
:1045C00064005072696E7420776974682055505386
:1045D0002F4261636B757020506F7765722C206F6E
:1045E000722063757272656E742066696C652069ED
:1045F00073205245535552522E204E6F2041432076
:10460000506F776572204C6F737420536176696EBA
:10461000672077696C6C20626520747269676765D2
:1046200072656421002053697A653A200046696CFE
:1046300065206F70656E65643A20004F70656E206E
:1046400066696C6520776974682052454144206D25
:104650006F64652E002E006F70656E206661696C58
:1046600065642C2046696C653A20006E616D655B5F
:10467000305D3D3D272F27004E6F772066726573B2
:10468000682066696C653A200046696C652069732C
:10469000204E4F54204F50454E2E004E6F772064D1
:1046A0006F696E672066696C653A200046696C65C3
:1046B000206973204F50454E20616E6420726570F2
:1046C0006C6163655F63757272656E742066616CA0
:1046D00073652E002220706F730022207061726556
:1046E0006E743A2200535542524F5554494E45205C
:1046F00043414C4C207461726765743A22007472B5
:1047000079696E6720746F2063616C6C20737562C9
:104710002D67636F64652066696C657320776974C3
:104720006820746F6F206D616E79206C6576656CA2
:10473000732E204D4158206C6576656C2069733A64
:104740000046696C65206973204F50454E20616EAC
:1047500064207265706C6163655F63757272656E0B
:104760007420747275652E00534420636172642056
:104770006F6B006F70656E526F6F74206661696C4D
:10478000656400766F6C756D652E696E6974206660
:1047900061696C656400534420696E6974206661C8
:1047A000696C0043616E6E6F74206F70656E20736C
:1047B0007562646972006563686F3A004572726F72
:1047C000723A00544553540D0A000D0A00556E6BA1
:1047D0006E6F776E20636F6D6D616E643A20000DB1
:1047E0000A003F00566572733A5F332E332E3065F0
:1047F00078005072696E74207061757365642E2044
:10480000436865636B206665656465722E004D6163
:1048100074657269616C207472616E73706F72740A
:104820002069737375652064657465637465642EAF
:10483000006563686F3A004572726F723A002074C7
:104840006F6F206C6F6E6720657874727573696F17
:104850006E2070726576656E7465640020636F6C9F
:104860006420657874727573696F6E2070726576F6
:10487000656E746564006563686F3A00205A3A009B
:1048800020593A0020583A00656E6473746F707353
:10489000206869743A200024F4D43050C38E20C2BA
:1048A000A24017828B7011127A910D816CD90AA8DF
:1048B00061E108C7586607615143061E4B5D05C19B
:1048C00045A7041A411104093D9803713931034089
:1048D00036DB0265339102D4305402802E1D026310
:1048E0002CEE01752AC501B028A001102781018F87
:1048F0002564012B244B01E0223401AC211F018DE2
:10490000200D01801FFC00841EED00971DDF00B804
:104910001CD200E61BC600201BBC00641AB200B209
:1049200019A8000A19A0006A189900D1179100402F
:10493000178B00B516840031167E00B31579003A46
:10494000157300C7146F0058146A00EE13660088D0
:1049500013630025135E00C7125B006C125700152D
:10496000125400C111510070114F0021114B00D69B
:104970001049008D1047004610440002104200C04C
:104980000F4000800F3E00420F3C00060F3B00CB63
:104990000E3800930E37005C0E3500270E3400F3FE
:1049A0000D3200C10D3100900D3000600D2E00322F
:1049B0000D2D00050D2C00D90C2B00AE0C29008507
:1049C0000C29005C0C2700350C27000E0C2600E893
:1049D0000B2400C40B2400A00B23007D0B23005AE2
:1049E0000B2100390B2100180B2000F80A1F00D9F9
:1049F0000A1E00BB0A1E009D0A1D00800A1D0063DE
:104A00000A1C00470A1B002C0A1B00110A1A00F797
:104A1000091A00DD091900C4091900AB091900922F
:104A20000917007B091800630917004C09160036A6
:104A3000091600200916000A091500F5081500E0FE
:104A4000081400CC081400B8081400A4081400903E
:104A50000813007D0812006B081300580812004666
:104A60000812003408110023081100120811000177
:104A7000081100F0071000E0071000D0071000C078
:104A8000071000B0070F00A107100091070E008368
:104A9000070F0074070F0065070E0057070E004947
:104AA000070E003B070D002E070E0020070D001318
:104AB000070D0006070D00F9060C00ED060D00E0DD
:104AC000060C00D4060C00C8060C00BC060C00B096
:104AD000060C00A4060B0099060C008D060B008244
:104AE000060B0077060B006C060B0061060A0057E8
:104AF000060B004C060A0042060A0038060A002E81
:104B0000060A0024060A001A060A00100609000711
:104B1000060A00FD050900F4050900EB050900E29D
:104B2000050900D9050900D0050900C7050900BE1F
:104B3000050900B5050800AD050800A50509009C9C
:104B4000050800940508008C050800840508007C11
:104B5000050800740508006C050700650508005D80
:104B6000050700560508004E0507004705070040E9
:104B700005080038050700310507002A050700234E
:104B80000507001C050600160507000F05070008AD
:104B900005060002050700FB040600F5040700EE09
:104BA000040600E8040600E2040700DB040600D562
:104BB000040600CF040600C9040600C3040600BDB5
:104BC000040600B7040600B1040500AC040600A604
:104BD000040600A00405009B04060095040500904F
:104BE0000406008A04050085040500800406007A96
:104BF00004050075040500700405006B04050066DB
:104C0000040500610405005C04050057040500521A
:104C10000405004D04050048040500430405003E5A
:104C20000404003A04050035040500300404002C97
:104C300004050027040400230405001E0404001AD0
:104C400004040016040500110404000D0404000906
:104C50000405000404040000040400FC030400F83C
:104C6000030400F4030400F0030400EC030400E870
:104C7000030400E4030400E0030400DC030400D8A0
:104C8000030400D4030400D0030400CC030400C8D0
:104C9000030300C503030024F404D9201BC40C5CE7
:104CA0000E9804C4095F0265077101F405F900FB61
:104CB00004B30048048700C103690058035500038A
:104CC000034500BE023A008402310053022A002943
:104CD00002250004022000E4011C00C8011900AFF5
:104CE0000117009801140084011300710110006184
:104CF00001100051010E0043010D0036010B002B85
:104D0000010B0020010B00150109000C0109000333
:104D1000010800FB000800F3000800EB000700E4B6
:104D2000000600DE000600D8000600D2000600CC17
:104D3000000500C7000500C2000500BD000400B961
:104D4000000400B5000400B1000400AD000400A997
:104D5000000400A5000300A20003009F0004009BC4
:104D600000030098000300950002009300030090E8
:104D70000003008D0002008B000300880002008603
:104D800000020084000300810002007F0002007D19
:104D90000002007B0002007900020077000100762B
:104DA0000002007400020072000100710002006F36
:104DB0000002006D0001006C0002006A0001006941
:104DC0000002006700010066000100650001006448
:104DD0000002006200010061000100600001005F4C
:104DE0000002005D0001005C0001005B0001005A50
:104DF0000001005900010058000100570001005651
:104E00000001005500010054000100530000005350
:104E10000001005200010051000100500001004F4C
:104E20000001004E0000004E0001004D0001004C4A
:104E30000001004B0000004B0001004A0001004946
:104E40000001004800000048000100470001004642
:104E5000000000460001004500000045000100443C
:104E60000001004300000043000100420000004236
:104E70000001004100000041000100400001003F2E
:104E80000000003F0001003E0000003E0001003D28
:104E90000000003D0001003C0000003C0000003C20
:104EA0000001003B0000003B0001003A0000003A16
:104EB000000100390000003900010038000000380E
:104EC0000000003800010037000000370001003604
:104ED00000000036000000360001003500000035FB
:104EE00000000035000100340000003400000034F0
:104EF00000010033000000330000003300010032E5
:104F000000000032000000320001003100000031DA
:104F100000000031000100300000003000000030CF
:104F20000001002F0000002F0000002F0000002FC4
:104F30000001002E0000002E0000002E0001002DB8
:104F40000000002D0000002D0000002D0001002CAD
:104F50000000002C0000002C0000002C0001002BA1
:104F60000000002B0000002B0000002B0001002A95
:104F70000000002A0000002A0000002A0001002989
:104F8000000000290000002900000029000000297D
:104F90000001002800000028000000280000002870
:104FA0000000002800010027000000270000002763
:104FB0000000002700000027000100260000002656
:104FC0000000002600000026000000260001002549
:104FD000000000250000002500000025000000253D
:104FE000000000250001002400000024000000242F
:104FF0000000002400000024000100230000002322
:105000000000002300000023000000230000002314
:105010000000002300010022000000220000002206
:1050200000000022000000220000002200010021F8
:1050300000000021000000210000002100000021EC
:1050400000000021000000210001002000000020DD
:1050500000000020000000200000002000000020D0
:1050600000000020000000200001001F0000001FC1
:105070000000001F0000001F0000001F0000001FB4
:105080000000001F0001001E0000001E0000001EA6
:105090000000001E0000006563686F3A003A20457A
:1050A0007874727564657220737769746368656477
:1050B000206F66662E204D494E54454D5020747227
:1050C000696767657265642021003A2045787472CB
:1050D00075646572207377697463686564206F66B0
:1050E000662E204D415854454D50207472696767B3
:1050F0006572656420210054656D70657261747518
:1051000072652068656174656420626564207377E8
:10511000697463686564206F66662E204D4158543B
:10512000454D50207472696767657265642021215E
:1051300000202D20496E76616C6964206578747258
:1051400075646572206E756D62657220210050492C
:1051500044204175746F74756E652066696E69735D
:10516000686564212050757420746865204B702C2C
:10517000204B6920616E64204B6420636F6E7374F2
:10518000616E747320696E746F20436F6E66696719
:1051900075726174696F6E2E6800504944204175C4
:1051A000746F74756E65206661696C656421207426
:1051B000696D656F75740020403A006F6B20543A3A
:1051C000006F6B20423A00504944204175746F745F
:1051D000756E65206661696C6564212054656D702B
:1051E0006572617475726520746F6F206869676895
:1051F00000204B643A2000204B693A2000204B707D
:105200003A200020436C61736963205049442000B8
:105210002054753A2000204B753A2000206D6178AB
:105220003A2000206D696E3A200020643A20002068
:10523000626961733A2000504944204175746F746B
:10524000756E652073746172740050494420417515
:10525000746F74756E65206661696C65642E20429A
:105260006164206578747275646572206E756D6214
:1052700065722E004572726F723A000000000018CD
:10528000070100A807140030082800B8083C0038BF
:10529000095000C0096400480A7800C80A8C004818
:1052A0000BA000C80BB400480CC800C80CDC0040C0
:1052B0000DF000C00D0401380E1801B00E2C0128AD
:1052C0000F4001A00F54011810680188107C0100E4
:1052D0001190013013F401481558024017BC022800
:1052E000192003F01A8403A81CE803401E4C040094
:1052F000000A0B02090C0D0E080703040100000050
:10530000000000000000000000000000000000009D
:10531000000000000000000000000012111000005A
:10532000000000000000000000000000000000007D
:10533000000000000001021020200808102040108A
:105340002040800201020108040201010204081049
:105350002040808040201008040201800402018067
:105360004020100804020108040201010204081090
:105370002040800102040810204080050505050733
:105380000508080808020202020A0A0808040404C0
:1053900004010101010101010103030303030303EC
:1053A00003040707070C0C0C0C0C0C0C0C0202027B
:1053B0000206060606060606060B0B0B0B0B0B0B6E
:1053C0000B00002200250028002B002E00310034A5
:1053D0000002010000050108010B0100002100246A
:1053E0000027002A002D00300033000101000004D6
:1053F0000107010A014E414E494E495459494E4652
:10540000CDCCCC3D0AD7233C17B7D13877CC2B3243
:105410009595E6241FB14F0A000020410000C842C4
:1054200000401C4620BCBE4CCA1B0E5AAEC59D7423
:1054300000407A10F35A00A0724E18090010A5D44B
:10544000E80000E87648170000E40B54020000CAA8
:105450009A3B000000E1F5050000809698000000EE
:1054600040420F000000A08601000000102700004D
:105470000000E803000000006400000000000A00D3
:10548000000000000100000000002C76D888DC67D6
:105490004F0823DFC1DFAE59E1B1B796E5E3E4532E
:1054A000C63AE651997696E8E6C28426EB898C9B4B
:1054B00062ED407C6FFCEFBC9C9F40F2BAA56FA5EB
:1054C000F490055A2AF75C936B6CF9676DC11BFC6D
:1054D000E0E40D47FEF520E6B500D0ED902E030088
:1054E000943577050080841E080000204E0A0000D5
:1054F00000C80C333333330F986E12831141EF8D94
:105500002114893BE65516CFFEE6DB18D1844B38D3
:105510001BF77C1D901DA4BBE424203284725E2204
:105520008100C9F124ECA1E53D27865D975D11243A
:105530001FBECFEFD1E2DEBFCDBF00E00CBF14E055
:10554000A0E0B2E0E0E5FFE102E00BBF02C007909F
:105550000D92AC3AB107D9F72BE1ACEAB4E001C047
:105560001D92AD38B207E1F715E5CCE2D5E500E0D4
:1055700006C022970109FE010BBF0F94A405CA3291
:10558000D10780E00807A9F70F9486000D94960FC5
:105590000C940000EF92FF920F931F93CF93DF9331
:1055A0001F92CDB7DEB78C017B01460FF7016191E9
:1055B0007F01F8018081918149830F94820CF80169
:1055C0008081918101969183808349814E11EECF34
:1055D0000F90DF91CF911F910F91FF90EF90089561
:1055E000EF92FF920F931F93CF93DF931F92CDB74C
:1055F000DEB78C017B01460FF801808191814983E0
:105600000F94670CF70181937F01F80180819181EC
:1056100001969183808349814E11EECF0F90DF91E7
:10562000CF911F910F91FF90EF9008950F931F93CB
:10563000CF93DF93CDB7DEB766970FB6F894DEBF92
:105640000FBECDBF80E390E3A0E3B0E08D839E83E7
:10565000AF83B88704E610E01E8B0D8B44E0BE01DB
:105660006B5F7F4FCE01459695DF40E16BEB7AE1B2
:10567000CE0145968FDF40E16BEC7AE1CE01459695
:1056800089DF40E167EA7AE1CE01459683DF44E0B5
:105690006FE97AE1CE0145967DDF44E06BE97AE17E
:1056A000CE01459677DF44E063EA7AE1CE01459684
:1056B00071DF44E06BE87AE1CE0145966BDF44E0B0
:1056C0006BED7AE1CE01459665DF44E067E97AE16A
:1056D000CE0145965FDF44E063E97AE1CE0145966D
:1056E00059DF44E06FE87AE1CE01459653DF4CE0A4
:1056F00065E67BE0CE0145964DDF84EB90E09C8B28
:105700008B8B86E490E09A8B898B188A1F8680EFBA
:1057100090E09E878D871C870B871A86198642E04A
:10572000BE016D5E7F4FCE01459634DF42E0BE0183
:105730006F5E7F4FCE0145962DDF42E0BE01615F77
:105740007F4FCE01459626DF42E0BE01635F7F4F6B
:10575000CE0145961FDF42E0BE01655F7F4FCE015F
:10576000459618DF42E0BE01675F7F4FCE01459648
:1057700011DF44E06FE672E0CE0145960BDF44E0B6
:105780006BE672E0CE01459605DF44E067E672E025
:10579000CE014596FFDE46E065E572E0CE01459616
:1057A000F9DE41E06AE472E0CE014596F3DE41E0C5
:1057B00063E470E1CE014596EDDE44E06BE172E01A
:1057C000CE014596E7DE44E067E172E0CE01459602
:1057D000E1DE86E591E3A1E3B0E089839A83AB83C0
:1057E000BC831E8B0D8B44E0BE016F5F7F4FCE01EB
:1057F0004596D0DEE5E7F4E08491882341F090916E
:10580000C00095FFFCCF8093C6003196F5CFE5E64A
:10581000F4E08491882341F09091C00095FFFCCF83
:105820008093C6003196F5CF8091C00085FFFCCFF4
:105830008AE08093C60066960FB6F894DEBF0FBE6E
:10584000CDBFDF91CF911F910F910895CF93DF933B
:10585000C5E7D4E0FE018491882341F09091C00017
:1058600095FFFCCF8093C6003196F5CFE5E5F4E0D7
:105870008491882341F09091C00095FFFCCF8093E4
:10588000C6003196F5CF8091C00085FFFCCF8AE03D
:105890008093C600FE018491E5E7F4E0882349F097
:1058A0009091C00095FFFCCF8093C6003196849103
:1058B000F5CF4091BB1A5091BC1A6091BD1A7091FE
:1058C000BE1A8DE494E061D74091BF1A5091C01A7E
:1058D0006091C11A7091C21A8AE494E056D740913F
:1058E000C31A5091C41A6091C51A7091C61A87E400
:1058F00094E04BD74091C71A5091C81A6091C91AC9
:105900007091CA1A84E494E040D78091C00085FF6A
:10591000FCCF8AE08093C600FE018491E5E7F4E0C5
:10592000882349F09091C00095FFFCCF8093C6007A
:1059300031968491F5CFEAE2F4E08491882341F036
:105940009091C00095FFFCCF8093C6003196F5CFB3
:105950008091C00085FFFCCF8AE08093C600FE01E5
:105960008491E5E7F4E0882349F09091C00095FF29
:10597000FCCF8093C60031968491F5CF4091CB1A2D
:105980005091CC1A6091CD1A7091CE1A81E294E0B8
:10599000FCD64091CF1A5091D01A6091D11A7091D3
:1059A000D21A8EE194E0F1D64091D31A5091D41AD4
:1059B0006091D51A7091D61A8BE194E0E6D64091A9
:1059C000D71A5091D81A6091D91A7091DA1A88E1D1
:1059D00094E0DBD68091C00085FFFCCF8AE0809305
:1059E000C600FE018491E5E7F4E0882349F0909138
:1059F000C00095FFFCCF8093C60031968491F5CF0F
:105A0000EAEFF3E08491882341F09091C00095FF84
:105A1000FCCF8093C6003196F5CF8091C00085FF02
:105A2000FCCF8AE08093C600FE018491E5E7F4E0B4
:105A3000882349F09091C00095FFFCCF8093C60069
:105A400031968491F5CF4091A71A5091A81A609190
:105A5000A91A7091AA1A81EF93E0A8D64091AB1AC7
:105A60005091AC1A6091AD1A7091AE1A8EEE93E01F
:105A70009DD64091AF1A5091B01A6091B11A7091B1
:105A8000B21A8BEE93E092D64091B31A5091B41AA9
:105A90006091B51A7091B61A88EE93E087D680911E
:105AA000C00085FFFCCF8AE08093C600FE01849190
:105AB000E5E7F4E0882349F09091C00095FFFCCF22
:105AC0008093C60031968491F5CFE3EBF3E08491A7
:105AD000882341F09091C00095FFFCCF8093C600D1
